S010000050726F6A656374312E737265630C
S11300000C9434000C9446000C9446000C94460066
S11300100C9446000C9446000C9446000C94460044
S11300200C9446000C9446000C9446000C94460034
S11300300C9446000C9446000C9446000C94460024
S11300400C9497000C9446000C9446000C944600C3
S11300500C9446000C9467000C9446000C944600E3
S11300600C9446000C94460011241FBECFEFD8E038
S1130070DEBFCDBF21E0A0E0B1E001C01D92AE30F3
S1130080B207E1F70E9448000C9403020C940000AC
S11300908FEF8AB914B880E385B980936B0081E04F
S11300A08093680010920B0110920A0195E095BDAF
S11300B014BC9DE396BD80936E0080E480937C0025
S11300C08FEE80937A0010927B007894FFCF1F927A
S11300D00F920FB60F9211242F938F939F938091B9
S11300E078009091790090930901809308018091A0
S11300F008019091090180910801909109018130D2
S1130100924038F484E190E090930D0180930C01C7
S113011006C080E590E090930D0180930C019F91BF
S11301208F912F910F900FBE0F901F9018951F92D3
S11301300F920FB60F9211242F933F934F935F9317
S11301408F939F938DE386BD80910A0190910B015B
S1130150019690930B0180930A01059708F448C116
S113016083B18073803309F055C08091060190916A
S11301700701009749F481E08BB981E090E0909306
S11301800701809306013DC0803891059CF42091BD
S1130190040130910501232B69F4880F8BB98091F8
S11301A0060190910701880F991F9093070180938E
S11301B0060117C082309105A4F02091040130910A
S11301C005012130310569F4959587958BB98091A6
S11301D00601909107019595879590930701809367
S11301E0060180910601909107018038910539F448
S11301F081E090E0909305018093040106C001978B
S113020021F4109205011092040110920B01109236
S11302100A01EEC01C994FC0809108019091090118
S1130220AC011816190614F01BB840C09C012058E4
S113023031092038310518F481E08BB937C09C01AD
S11302403A952038310518F483E08BB92FC09C010E
S1130250205831402038310518F487E08BB926C086
S11302609C0132502038310518F48FE08BB91EC040
S11302709C01205832402038310518F48FE18BB9A5
S113028015C09C0133502038310518F48FE38BB925
S11302900DC0805893408737910518F48FE78BB9C8
S11302A005C0473F534014F08FEF8BB910920B01F8
S11302B010920A019DC083B18091020190910301C3
S11302C0009749F481E090E0909303018093020148
S11302D021E030E038C08830910574F420910001A9
S11302E030910101232B41F49C01220F331F3093E1
S11302F003012093020117C0823091057CF0209104
S11303000001309101012130310559F49C013595EA
S11303102795309303012093020105C020E030E0CB
S113032002C020E030E08091020190910301883006
S1130330910539F481E090E09093010180930001EC
S113034006C0019721F410920101109200018091DE
S1130350080190910901892B41F480910801909141
S113036009018F3F9105A9F1A0F1809108019091B5
S113037009018F3F910541F038F080910801909177
S113038009018115924038F1809108019091090189
S11303908115924038F080910801909109018115EE
S11303A09340D8F080910801909109018115934000
S11303B038F08091080190910901873F934078F0CB
S11303C08091080190910901873F934050F080EF9C
S11303D009C080E007C080E105C080E303C080E776
S11303E001C080E0820F8BB910920B0110920A01B8
S11303F09F918F915F914F913F912F910F900FBEDD
S10D04000F901F901895F894FFCF99
S9030000FC
